{
  "contractName": "TokenFarm",
  "abi": [
    {
      "inputs": [
        {
          "internalType": "contract DaiToken",
          "name": "_Dai",
          "type": "address"
        },
        {
          "internalType": "contract DappToken",
          "name": "_Dapp",
          "type": "address"
        }
      ],
      "stateMutability": "nonpayable",
      "type": "constructor"
    },
    {
      "inputs": [],
      "name": "Dai",
      "outputs": [
        {
          "internalType": "contract DaiToken",
          "name": "",
          "type": "address"
        }
      ],
      "stateMutability": "view",
      "type": "function",
      "constant": true
    },
    {
      "inputs": [],
      "name": "Dapp",
      "outputs": [
        {
          "internalType": "contract DappToken",
          "name": "",
          "type": "address"
        }
      ],
      "stateMutability": "view",
      "type": "function",
      "constant": true
    },
    {
      "inputs": [
        {
          "internalType": "address",
          "name": "",
          "type": "address"
        }
      ],
      "name": "dappBalance",
      "outputs": [
        {
          "internalType": "uint256",
          "name": "",
          "type": "uint256"
        }
      ],
      "stateMutability": "view",
      "type": "function",
      "constant": true
    },
    {
      "inputs": [
        {
          "internalType": "address",
          "name": "",
          "type": "address"
        }
      ],
      "name": "hasStaked",
      "outputs": [
        {
          "internalType": "bool",
          "name": "",
          "type": "bool"
        }
      ],
      "stateMutability": "view",
      "type": "function",
      "constant": true
    },
    {
      "inputs": [
        {
          "internalType": "uint256",
          "name": "",
          "type": "uint256"
        }
      ],
      "name": "investors",
      "outputs": [
        {
          "internalType": "address",
          "name": "",
          "type": "address"
        }
      ],
      "stateMutability": "view",
      "type": "function",
      "constant": true
    },
    {
      "inputs": [
        {
          "internalType": "address",
          "name": "",
          "type": "address"
        }
      ],
      "name": "isStaking",
      "outputs": [
        {
          "internalType": "bool",
          "name": "",
          "type": "bool"
        }
      ],
      "stateMutability": "view",
      "type": "function",
      "constant": true
    },
    {
      "inputs": [],
      "name": "name",
      "outputs": [
        {
          "internalType": "string",
          "name": "",
          "type": "string"
        }
      ],
      "stateMutability": "view",
      "type": "function",
      "constant": true
    },
    {
      "inputs": [],
      "name": "owner",
      "outputs": [
        {
          "internalType": "address",
          "name": "",
          "type": "address"
        }
      ],
      "stateMutability": "view",
      "type": "function",
      "constant": true
    },
    {
      "inputs": [
        {
          "internalType": "address",
          "name": "",
          "type": "address"
        }
      ],
      "name": "stakedBalance",
      "outputs": [
        {
          "internalType": "uint256",
          "name": "",
          "type": "uint256"
        }
      ],
      "stateMutability": "view",
      "type": "function",
      "constant": true
    },
    {
      "inputs": [
        {
          "internalType": "uint256",
          "name": "_amount",
          "type": "uint256"
        }
      ],
      "name": "stakeTokens",
      "outputs": [],
      "stateMutability": "nonpayable",
      "type": "function"
    },
    {
      "inputs": [],
      "name": "issueTokens",
      "outputs": [],
      "stateMutability": "nonpayable",
      "type": "function"
    },
    {
      "inputs": [],
      "name": "unstakeTokens",
      "outputs": [],
      "stateMutability": "nonpayable",
      "type": "function"
    }
  ],
  "bytecode": "0x60806040526040518060400160405280600b81526020017f4d79546f6b656e4661726d000000000000000000000000000000000000000000815250600090805190602001906200005192919062000150565b503480156200005f57600080fd5b50604051620014cc380380620014cc83398181016040528101906200008591906200022e565b81600160006101000a81548173ffffffffffffffffffffffffffffffffffffffff021916908373ffffffffffffffffffffffffffffffffffffffff16021790555080600260006101000a81548173ffffffffffffffffffffffffffffffffffffffff021916908373ffffffffffffffffffffffffffffffffffffffff16021790555033600360006101000a81548173ffffffffffffffffffffffffffffffffffffffff021916908373ffffffffffffffffffffffffffffffffffffffff160217905550505062000364565b8280546200015e90620002cb565b90600052602060002090601f016020900481019282620001825760008555620001ce565b82601f106200019d57805160ff1916838001178555620001ce565b82800160010185558215620001ce579182015b82811115620001cd578251825591602001919060010190620001b0565b5b509050620001dd9190620001e1565b5090565b5b80821115620001fc576000816000905550600101620001e2565b5090565b600081519050620002118162000330565b92915050565b60008151905062000228816200034a565b92915050565b600080604083850312156200024257600080fd5b6000620002528582860162000200565b9250506020620002658582860162000217565b9150509250929050565b60006200027c82620002ab565b9050919050565b600062000290826200026f565b9050919050565b6000620002a4826200026f565b9050919050565b600073ffffffffffffffffffffffffffffffffffffffff82169050919050565b60006002820490506001821680620002e457607f821691505b60208210811415620002fb57620002fa62000301565b5b50919050565b7f4e487b7100000000000000000000000000000000000000000000000000000000600052602260045260246000fd5b6200033b8162000283565b81146200034757600080fd5b50565b620003558162000297565b81146200036157600080fd5b50565b61115880620003746000396000f3fe608060405234801561001057600080fd5b50600436106100b45760003560e01c80636f49712b116100715780636f49712b1461017d5780637547c7a3146101ad57806387a4417c146101c95780638da5cb5b146101f9578063a5ce413b14610217578063c93c8f3414610221576100b4565b806306fdde03146100b957806320f51707146100d75780633feb5f2b146100f5578063602172671461012557806360ab58521461015557806364e4bfcd1461015f575b600080fd5b6100c1610251565b6040516100ce9190610e21565b60405180910390f35b6100df6102df565b6040516100ec9190610deb565b60405180910390f35b61010f600480360381019061010a9190610be8565b610305565b60405161011c9190610d55565b60405180910390f35b61013f600480360381019061013a9190610b96565b610344565b60405161014c9190610ea3565b60405180910390f35b61015d61035c565b005b6101676105d1565b6040516101749190610e06565b60405180910390f35b61019760048036038101906101929190610b96565b6105f7565b6040516101a49190610dd0565b60405180910390f35b6101c760048036038101906101c29190610be8565b610617565b005b6101e360048036038101906101de9190610b96565b6108ca565b6040516101f09190610ea3565b60405180910390f35b6102016108e2565b60405161020e9190610d55565b60405180910390f35b61021f610908565b005b61023b60048036038101906102369190610b96565b610b37565b6040516102489190610dd0565b60405180910390f35b6000805461025e90610ff3565b80601f016020809104026020016040519081016040528092919081815260200182805461028a90610ff3565b80156102d75780601f106102ac576101008083540402835291602001916102d7565b820191906000526020600020905b8154815290600101906020018083116102ba57829003601f168201915b505050505081565b600160009054906101000a900473ffffffffffffffffffffffffffffffffffffffff1681565b6008818154811061031557600080fd5b906000526020600020016000915054906101000a900473ffffffffffffffffffffffffffffffffffffffff1681565b60046020528060005260406000206000915090505481565b600360009054906101000a900473ffffffffffffffffffffffffffffffffffffffff1673ffffffffffffffffffffffffffffffffffffffff163373ffffffffffffffffffffffffffffffffffffffff16146103ec576040517f08c379a00000000000000000000000000000000000000000000000000000000081526004016103e390610e63565b60405180910390fd5b60005b6008805490508110156105ce57600060088281548110610438577f4e487b7100000000000000000000000000000000000000000000000000000000600052603260045260246000fd5b9060005260206000200160009054906101000a900473ffffffffffffffffffffffffffffffffffffffff1690506000600460008373ffffffffffffffffffffffffffffffffffffffff1673ffffffffffffffffffffffffffffffffffffffff16815260200190815260200160002054905060008111156105b957600260009054906101000a900473ffffffffffffffffffffffffffffffffffffffff1673ffffffffffffffffffffffffffffffffffffffff1663a9059cbb83836040518363ffffffff1660e01b815260040161050f929190610da7565b602060405180830381600087803b15801561052957600080fd5b505af115801561053d573d6000803e3d6000fd5b505050506040513d601f19601f820116820180604052508101906105619190610bbf565b5080600760008473ffffffffffffffffffffffffffffffffffffffff1673ffffffffffffffffffffffffffffffffffffffff16815260200190815260200160002060008282546105b19190610eda565b925050819055505b505080806105c690611025565b9150506103ef565b50565b600260009054906101000a900473ffffffffffffffffffffffffffffffffffffffff1681565b60066020528060005260406000206000915054906101000a900460ff1681565b6000811161065a576040517f08c379a000000000000000000000000000000000000000000000000000000000815260040161065190610e83565b60405180910390fd5b600160009054906101000a900473ffffffffffffffffffffffffffffffffffffffff1673ffffffffffffffffffffffffffffffffffffffff166323b872dd3330846040518463ffffffff1660e01b81526004016106b993929190610d70565b602060405180830381600087803b1580156106d357600080fd5b505af11580156106e7573d6000803e3d6000fd5b505050506040513d601f19601f8201168201806040525081019061070b9190610bbf565b5080600460003373ffffffffffffffffffffffffffffffffffffffff1673ffffffffffffffffffffffffffffffffffffffff168152602001908152602001600020600082825461075b9190610eda565b92505081905550600560003373ffffffffffffffffffffffffffffffffffffffff1673ffffffffffffffffffffffffffffffffffffffff16815260200190815260200160002060009054906101000a900460ff16610817576008339080600181540180825580915050600190039060005260206000200160009091909190916101000a81548173ffffffffffffffffffffffffffffffffffffffff021916908373ffffffffffffffffffffffffffffffffffffffff1602179055505b6001600560003373ffffffffffffffffffffffffffffffffffffffff1673ffffffffffffffffffffffffffffffffffffffff16815260200190815260200160002060006101000a81548160ff0219169083151502179055506001600660003373ffffffffffffffffffffffffffffffffffffffff1673ffffffffffffffffffffffffffffffffffffffff16815260200190815260200160002060006101000a81548160ff02191690831515021790555050565b60076020528060005260406000206000915090505481565b600360009054906101000a900473ffffffffffffffffffffffffffffffffffffffff1681565b6000600460003373ffffffffffffffffffffffffffffffffffffffff1673ffffffffffffffffffffffffffffffffffffffff1681526020019081526020016000205490506000811161098f576040517f08c379a000000000000000000000000000000000000000000000000000000000815260040161098690610e43565b60405180910390fd5b600160009054906101000a900473ffffffffffffffffffffffffffffffffffffffff1673ffffffffffffffffffffffffffffffffffffffff1663a9059cbb33836040518363ffffffff1660e01b81526004016109ec929190610da7565b602060405180830381600087803b158015610a0657600080fd5b505af1158015610a1a573d6000803e3d6000fd5b505050506040513d601f19601f82011682018060405250810190610a3e9190610bbf565b506000600460003373ffffffffffffffffffffffffffffffffffffffff1673ffffffffffffffffffffffffffffffffffffffff168152602001908152602001600020819055506001600560003373ffffffffffffffffffffffffffffffffffffffff1673ffffffffffffffffffffffffffffffffffffffff16815260200190815260200160002060006101000a81548160ff0219169083151502179055506000600660003373ffffffffffffffffffffffffffffffffffffffff1673ffffffffffffffffffffffffffffffffffffffff16815260200190815260200160002060006101000a81548160ff02191690831515021790555050565b60056020528060005260406000206000915054906101000a900460ff1681565b600081359050610b66816110dd565b92915050565b600081519050610b7b816110f4565b92915050565b600081359050610b908161110b565b92915050565b600060208284031215610ba857600080fd5b6000610bb684828501610b57565b91505092915050565b600060208284031215610bd157600080fd5b6000610bdf84828501610b6c565b91505092915050565b600060208284031215610bfa57600080fd5b6000610c0884828501610b81565b91505092915050565b610c1a81610f30565b82525050565b610c2981610f42565b82525050565b610c3881610f78565b82525050565b610c4781610f9c565b82525050565b6000610c5882610ebe565b610c628185610ec9565b9350610c72818560208601610fc0565b610c7b816110cc565b840191505092915050565b6000610c93601b83610ec9565b91507f796f752068617665206e6f7468696e6720746f20756e7374616b6500000000006000830152602082019050919050565b6000610cd3601b83610ec9565b91507f6f6e6c79206f776e65722063616e20697373756520746f6b656e7300000000006000830152602082019050919050565b6000610d13601283610ec9565b91507f616d6f756e742063616e6e6f74206265203000000000000000000000000000006000830152602082019050919050565b610d4f81610f6e565b82525050565b6000602082019050610d6a6000830184610c11565b92915050565b6000606082019050610d856000830186610c11565b610d926020830185610c11565b610d9f6040830184610d46565b949350505050565b6000604082019050610dbc6000830185610c11565b610dc96020830184610d46565b9392505050565b6000602082019050610de56000830184610c20565b92915050565b6000602082019050610e006000830184610c2f565b92915050565b6000602082019050610e1b6000830184610c3e565b92915050565b60006020820190508181036000830152610e3b8184610c4d565b905092915050565b60006020820190508181036000830152610e5c81610c86565b9050919050565b60006020820190508181036000830152610e7c81610cc6565b9050919050565b60006020820190508181036000830152610e9c81610d06565b9050919050565b6000602082019050610eb86000830184610d46565b92915050565b600081519050919050565b600082825260208201905092915050565b6000610ee582610f6e565b9150610ef083610f6e565b9250827fffffffffffffffffffffffffffffffffffffffffffffffffffffffffffffffff03821115610f2557610f2461106e565b5b828201905092915050565b6000610f3b82610f4e565b9050919050565b60008115159050919050565b600073ffffffffffffffffffffffffffffffffffffffff82169050919050565b6000819050919050565b6000610f8382610f8a565b9050919050565b6000610f9582610f4e565b9050919050565b6000610fa782610fae565b9050919050565b6000610fb982610f4e565b9050919050565b60005b83811015610fde578082015181840152602081019050610fc3565b83811115610fed576000848401525b50505050565b6000600282049050600182168061100b57607f821691505b6020821081141561101f5761101e61109d565b5b50919050565b600061103082610f6e565b91507fffffffffffffffffffffffffffffffffffffffffffffffffffffffffffffffff8214156110635761106261106e565b5b600182019050919050565b7f4e487b7100000000000000000000000000000000000000000000000000000000600052601160045260246000fd5b7f4e487b7100000000000000000000000000000000000000000000000000000000600052602260045260246000fd5b6000601f19601f8301169050919050565b6110e681610f30565b81146110f157600080fd5b50565b6110fd81610f42565b811461110857600080fd5b50565b61111481610f6e565b811461111f57600080fd5b5056fea26469706673582212209e2c8b4f6ec87a7c7ac7a49f2672f05c2350bb6dcc4525cbc4642bebf9e589a064736f6c63430008000033",
  "immutableReferences": {},
  "source": "pragma solidity ^0.8.0;\nimport \"./DaiToken.sol\";\nimport \"./DappToken.sol\";\n\n\n\ncontract TokenFarm{\n\n    string public name = \"MyTokenFarm\";\n    DaiToken public Dai;\n    DappToken public Dapp;\n    address  public owner;\n    \n\n    mapping(address=> uint) public stakedBalance;\n    mapping(address=> bool) public hasStaked;\n    mapping(address=> bool) public isStaking;\n    mapping(address=>uint)public dappBalance;\n    address [] public investors;\n    \n    constructor(DaiToken _Dai,DappToken _Dapp) public{\n        Dai=_Dai;\n        Dapp=_Dapp;\n        owner=msg.sender;\n    }\n\n    function stakeTokens(uint _amount) public{\n        require(_amount>0,'amount cannot be 0');\n        Dai.transferFrom(msg.sender,address(this),_amount);\n        stakedBalance[msg.sender]+=_amount;\n        \n        if(!hasStaked[msg.sender]){\n            investors.push(msg.sender);\n        }\n        hasStaked[msg.sender]=true;\n        isStaking[msg.sender]=true;\n\n    }\n    function issueTokens()public{\n        require(msg.sender == owner,'only owner can issue tokens');\n        for(uint i=0;i<investors.length;i++){\n            address investor=investors[i];\n            uint principal=stakedBalance[investor];\n            if(principal>0){\n                Dapp.transfer(investor,principal);\n                dappBalance[investor]+=principal;\n            }\n                \n            \n        }\n    }\n\n    function unstakeTokens() public{\n        \n        uint balance=stakedBalance[msg.sender];\n        require(balance>0,'you have nothing to unstake');\n        Dai.transfer(msg.sender,balance);\n        stakedBalance[msg.sender]=0;\n        \n        \n        hasStaked[msg.sender]=true;\n        isStaking[msg.sender]=false;\n        //investors.pop(msg.sender);\n\n    }\n}",
  "sourcePath": "/home/dhruv/Desktop/webdev/BlockChain/tokenFarm_next_ts/contracts/TokenFarm.sol",
  "compiler": {
    "name": "solc",
    "version": "0.8.0+commit.c7dfd78e.Emscripten.clang"
  },
  "schemaVersion": "3.4.1",
  "updatedAt": "2021-06-12T13:40:49.633Z",
  "networkType": "ethereum",
  "devdoc": {
    "kind": "dev",
    "methods": {},
    "version": 1
  },
  "userdoc": {
    "kind": "user",
    "methods": {},
    "version": 1
  }
}